:020000040040BA
:10000000301300208501400081014000E9124000CA
:10001000810140008101400081014000000000009A
:10002000000000000000000000000000810140000E
:10003000810140000000000081014000810140007A
:1000400081014000810140008101400081014000A8
:100050008101400081014000810140008101400098
:10006000810140008101400000000000810140004A
:100070008101400081014000810140008101400078
:100080008101400081014000810140008101400068
:100090008101400081014000810140008101400058
:1000A0008101400081014000810140008101400048
:1000B00081014000810140000000000000000000BC
:1000C0000000000000000000000000000000000030
:1000D0000000000000000000000000000000000020
:1000E0000000000000000000000000000000000010
:1000F000000000000000000000000000810140003E
:10010000810140008101400010B5054C237833B9CE
:10011000044B13B10448AFF300800123237010BDDA
:100120006800002000000000A03940000C4B43B1E3
:100130000C480D4910B5AFF300800C48036823B993
:1001400010BD0A48036833B97047094B002BF7D03C
:10015000BDE810401847064B002BF5D0184700BFEC
:1001600000000000A03940006C000020A0394000D1
:100170000000000008B5014B984708BDA1024000EF
:10018000FEE7000008B5174B174A9A4210D0174BEC
:10019000144A9A420CD2013B9B1A23F00303043306
:1001A0001344114951F8040B42F8040B9A42F9D157
:1001B0000F4B104A9A420AD2013B9B1A23F00303C9
:1001C00004331344002142F8041B9342FBD10A4A32
:1001D0000A4B23F07F039360094B9847094B9847DC
:1001E000FEE700BF00000020A039400068000020AA
:1001F0002C0D00206800002000ED00E00000400011
:1002000051364000510840004FF40032014B1A6053
:10021000704700BF000E0E40044B9B6913F0005F57
:1002200003D14FF00052014B1A61704700040E4099
:1002300008B5024B9847024B984708BD1902400089
:10024000090240000A4B1A6F22F010021A675A6F17
:1002500022F010025A6710225A601A6F22F0080228
:100260001A675A6F22F008025A6708225A607047CC
:10027000000E0E40044B9B6913F4002F03D14FF482
:100280000022014B1A61704700040E4008B5024B72
:100290009847024B984708BD750240004502400050
:1002A00008B5064B9847064A536843F40043536029
:1002B000044B9847044B984708BD00BFA105400078
:1002C00050140E40310240008D02400038B50C46FB
:1002D000054658B1081C18BF012043220449054BAC
:1002E000984721462846044B984738BD0020F4E73C
:1002F000A8364000F90440000105400038B50D461D
:10030000044658220549003018BF0120044B984785
:1003100029462046034B9847002038BDA8364000A8
:10032000F9044000410540002DE9F84F0D46914683
:100330009A468046E0B1EAB1181C18BF01201C4F54
:10034000712239461B4EB047444640461A4B9847E7
:1003500080469AFBF0F008FB10A073223946B0FAF1
:1003600080F04009B0470027DFF858B0134E07E08F
:100370000020E4E70020E2E74744BFB2BA4514D9C1
:100380002046D84729462046B0470028FAD02946BB
:1003900020460B4B984709F80700B8F1010FEBD93D
:1003A00009EB0703000A5870E6E73846BDE8F88F06
:1003B000A8364000F90440004D05400051054000BA
:1003C0006D05400065054000EFF31083036072B6D1
:1003D000BFF35F8F7047BFF35F8F036883F31088AD
:1003E0007047000010B5044B1C68044B9847014649
:1003F0002046034B984710BD84000020790540003B
:100400009905400010B584B014460389ADF8043056
:1004100002924FF40043ADF80630039101A914385D
:10042000034B9847002808BF204604B010BD00BF0A
:10043000F106400010B584B014460389ADF80430CD
:10044000029248F20103ADF80630039101A9143875
:10045000034B9847002808BF204604B010BD00BFDA
:10046000F106400038B50D460446682208490030C0
:1004700018BF0120074B984729462046064B98474E
:10048000034618B9054AA261054A6261184638BD9B
:10049000C4364000F90440006106400035044000C5
:1004A0000504400008B5014B984708BDCD06400043
:1004B000C1F3090102F480620A4382831046704747
:1004C000143008600020704770B50D46164604468B
:1004D00060B1081C18BF01203E220549054B984712
:1004E0002368324629462046984770BD0020F3E72E
:1004F000E0364000F904400000B900BE704700003B
:1005000038B50C46054658220949003018BF01206D
:10051000084B98472C60084B636000202064074B11
:10052000A360C4F89400A06301232361E06438BD94
:10053000F4364000F9044000000004201032540654
:100540000268012303FA01F111617047022070472C
:1005500003681A6B012303FA01F1114214BF184614
:1005600000207047036802221A6070470368143144
:1005700053F8210080B270474FF4487303FB00F03A
:100580000230044BA3FB0030400800EB8000400029
:10059000704700BFABAAAAAA0139FDD87047000076
:1005A00000B583B001A80D4B98470D4AD2F88830AA
:1005B00043F47003C2F88830BFF34F8FBFF36F8FDF
:1005C00001A8084B9847084A136823F47063136026
:1005D000064B984703B05DF804FB00BFC903400019
:1005E00000ED00E0D7034000000A0E40F105400096
:1005F0001A4A136A43F45C1343F008031362936EC0
:1006000013F4003FFBD0154A136A23F0700343F440
:100610005C131362936E13F4003FFBD00F4A136A0E
:1006200023F0807343F45C131362136B23F0030312
:1006300043F001031363936E13F0080FFBD0074AD6
:10064000136B23F070031363936E13F0080FFBD04A
:10065000024B00229A6380221A60704700040E4009
:1006600038B50D460446E8B1F1B1012084221349A2
:10067000134B984705F5C0622261124B12498A421A
:1006800018BF002303222A60226959681160226979
:10069000996891632269D968516422691B69136161
:1006A000002038BD0020E1E7842204490020044BEB
:1006B000984705F5C06323610023E3E72437400032
:1006C000F90440000C3740000086014010B5044694
:1006D000A2220549003018BF0120044B9847236926
:1006E00004221A60002010BD24374000F9044000A5
:1006F00070B50C46054600282DD0081C18BF0120F7
:10070000C8225149514B98476B8813F4807F40F0C1
:100710009880638813F0010F1FD163889BB243F464
:1007200080736380238813F4806F5ED02A691B0A6C
:1007300043F078031B0403F4FE0343F48073536017
:100740002B692278DA606368002B65D000200146AF
:100750006FF0010657E00020D2E763889BB243F4B4
:1007600080736380238813F4806F36D02A691B0A54
:1007700043F078031B0403F4FE0343F488535360EF
:100780002B692278DA602B696268012A0CBF032288
:1007900001221A6063689BB1002102202A69136A52
:1007A00013F0020FFBD0126BA3685A546368023B2C
:1007B0008B4204BF2B691860013163689942EDD305
:1007C0002A69136A13F0010FFBD06B8823F480733E
:1007D0001B041B0C6B80002070BD2A691B0403F4F2
:1007E000FE0343F480535360CDE72A691B0403F4EE
:1007F000FE035360A7E73046A3685B5C5363013197
:100800006368994209D22A69136A13F4807FF2D18E
:1008100013F0040FF8D0EFE70020638813F4004FC3
:1008200006D16B8823F480731B041B0C6B8070BD96
:100830002B6902221A602A69136A13F0010FFBD098
:10084000EFE76FF0050070BD24374000F904400069
:100850002DE98048ADF2E46D0024CDF8A846CDF82E
:10086000A446002200230DF5D361C1E9002379A13C
:10087000D1E900010DF5D265C5E900010DF5D161A1
:10088000C1E900230022624B0DF5CF61C1E90023CD
:100890005DA3D3E900230DF5CE61C1E900234FF438
:1008A000487632462146D4A85A4DA84732462146BA
:1008B0000CA8A847584B984758490DF5DB60584B92
:1008C0009847224657490DF2DC60574B984721461E
:1008D0000DF2DC60554B98470DF5DB610DF5D760E7
:1008E000534B98470DF5D760524B98474FF4006231
:1008F00061210DF5D760504B98474FF4FA704F4B7C
:100900009847CDF8B446DDF8B436022B25DC4C48C8
:10091000642100260027CDF8B046DDF8B036632B01
:1009200012DCDDF8B436DDF8B02601FB032300EB62
:10093000C303C3E90067DDF8B0360133CDF8B03644
:10094000DDF8B036632BECDDDDF8B4360133CDF8DD
:10095000B436DDF8B436022BDDDD0023CDF8B43635
:10096000DDF8B436632B79DC364F374E374D08E06F
:10097000DDF8B4360133CDF8B436DDF8B436632B88
:100980006CDC022307AA00213846B0479DF81C30D2
:100990009DF81D2003EB02231BB2ADF82630BDF8F5
:1009A0002630C3F30B03ADF82630DDF8B446BDF8AE
:1009B000260000B2A847D4AB03EBC404C4E900018D
:1009C000DDF8B436D4AA02EBC303D3E900010DF578
:1009D000D363D3E900AB1E4CA0478046504659462E
:1009E000A0478045C4DDDDF8B436D4AA02EBC303CA
:1009F000D3E900230DF5D361C1E90023DDF8B43656
:100A0000CDF8A836B4E700BF0000000000F896401B
:100A100000406A4099364000750140000080014066
:100A20006504400000800340CD024000FD0240000C
:100A3000C1044000A5044000B1044000E5034000AB
:100A400088000020080D002029034000C92F400025
:100A5000F53540009A9999999999B93FDDF8A836EA
:100A60000133CDF8B436DDF8B436632B15DCDDF890
:100A7000B436D4AA02EBC303D3E90001DDF8B436DF
:100A800002EBC303D3E90023994CA047002800F0F0
:100A90000883DDF8B436CDF8A436DDF8A43601338A
:100AA000CDF8B436DDF8B436632B38DC914F0FF255
:100AB0001829D9E90089904E904D914CDDF8B43653
:100AC000D4AA02EBC303D3E900AB42464B460DF573
:100AD000D361D1E90001B84702460B46504659465A
:100AE000B04798B1DDF8B436D4AA02EBC303D3E91A
:100AF00000AB42464B460DF5D361D1E90001A84752
:100B000002460B4650465946A04740B9DDF8B43678
:100B10000133CDF8B436DDF8B436632BCEDDDDF825
:100B2000B406DDF8A436C01A0130764B9847764CEF
:100B300067A3D3E90023A04702460B460020734970
:100B4000A0470DF5CF63C3E90001D3E900010246D8
:100B50000B466A4DA84702460B465DA1D1E900014C
:100B6000A0476B4B9847CDF8AC06DDF8AC360DF5D9
:100B7000DC6202EBC303A3F56673D3E900670022CE
:100B8000644B0DF5D361D1E90001634DA8470246DE
:100B90000B4630463946A04700225C4B554CA047D7
:100BA00001F1004319465D4B98470DF5D163C3E948
:100BB0000001002200230DF5D161D1E90001584C5C
:100BC000A047002800F077820022564B0DF5D16136
:100BD000D1E90001A8470DF5D063C3E90001002366
:100BE000CDF8B436DDF8B436632B59DC4A4D9FEDB1
:100BF0003A9BDFF810A1DFF810B1404F4A4E9FED4D
:100C0000388BDDF8B4460DF5D36393ED00BB0DF5DD
:100C1000CF63D3E90001DDF8B4860DF5CE6393ED23
:100C200000CB0DF5D06393ED00AB53EC192BA84727
:100C3000CDE904014046D04702460B46DDE90401F8
:100C4000A84753EC1C2BD84753EC1A2BB847B04796
:100C5000804689460DF5D36393ED00AB53EC182B1A
:100C600051EC1B0BA84742464B46A8478046894695
:100C700053EC182B51EC1A0BA84702460B46404682
:100C80004946B8470CAB03EBC404C4E90001DDF8E6
:100C9000B4360133CDF8B436DDF8B436632BB0DDAD
:100CA0000223CDF8B436DDF8B436632B00F35A8155
:100CB0001E4D194CDFF83C90DFF84080DFF848A06B
:100CC0009FED09CB34E000BF9A9999999979344006
:100CD0000000000000F89640182D4454FB211940F4
:100CE000000000000000E03F000000000000F03FB6
:100CF000653540002D2D4000A1354000312D4000CC
:100D00008D354000C92F4000E93240000000F03F1F
:100D1000F53540000000E03F953040008D13400065
:100D2000793540000000E0BFF91240008800002043
:100D3000DDF8B4360CAA02EBC303D3E90067DDF893
:100D4000B43605EBC303D3E90001DDF8B43602EB9A
:100D5000C303D3E900BCDDF8B43605EBC30393ED60
:100D6000C8ABDDF8B43602EBC30313ED02BBDDF80C
:100D7000B436C83305EBC30393ED008BDDF8B4360E
:100D800002EBC30313ED049B5A466346A047024699
:100D90000B4630463946C84706460F4653EC1B2BD8
:100DA00051EC1A0BA04702460B4630463946C8475D
:100DB00006460F4653EC192B51EC180BA047024680
:100DC0000B4630463946C8470DF5D163C3E90001EB
:100DD000DDF8B4360CAA02EBC303D3E90001DDF859
:100DE000B43602EBC303D3E90067DDF8B43602EB97
:100DF000C30313ED02ABDDF8B43602EBC30313ED0E
:100E000002BBDDF8B43602EBC30313ED048BDDF84F
:100E1000B43602EBC30313ED049B32463B46A047B6
:100E200006460F4653EC1B2B51EC1A0BA04702460B
:100E30000B4630463946C04706460F4653EC192B41
:100E400051EC180BA04702460B4630463946C047C6
:100E500002460B46C0470DF5D263C3E90001D3E952
:100E6000002351EC1C0BD0470DF5D263C3E9000100
:100E7000DDF8B4660136DDF8B43605EBC30393ED57
:100E8000008B0DF5D263D3E900010DF5D163D3E9F1
:100E900000BCDDF8B4360CAA02EBC30393ED009B53
:100EA0005A466346A04753EC192BA04753EC182B26
:100EB000C04705EBC606C6E90001DDF8B466DDF8FB
:100EC000B43605EBC30393EDC88B0DF5D263D3E9BC
:100ED00000010DF5D163D3E900BCDDF8B4360CAAEE
:100EE00002EBC30313ED029B5A466346A04753EC43
:100EF000192BA04753EC182BC04705EBC606C6E9D3
:100F0000CA01DDF8B466DDF8B436C83305EBC303B7
:100F100093ED008B0DF5D263D3E900010DF5D1639C
:100F2000D3E900BCDDF8B4360CAA02EBC30313ED21
:100F3000049B5A466346A04753EC192BA04753EC39
:100F4000182BC04706F1C90305EBC303C3E9000131
:100F5000DDF8B4360133CDF8B436DDF8B436632BA2
:100F60007FF7E6AE0023CDF8B436DDF8B436632B58
:100F70007CDC6A4FDFF8B48107F5166407F6581970
:100F8000674EDFF8ACA1DDF8B456D7E9C601DDF84D
:100F9000B4360CAA02EBC303029001F100420392A3
:100FA000D3E90023DDE90201C04704EBC505C5E92B
:100FB0000001DDF8B436002B16DDD9E90001DDF8BB
:100FC000B4360CAA02EBC30353E90223DDF8B4568E
:100FD00004EBC50595ED008BC04702460B4651EC6E
:100FE000180BB047C5E90001DDF8B436012B16DD5A
:100FF000D9E90001DDF8B4360CAA02EBC30353E9CA
:101000000423DDF8B45604EBC50595ED008BC0470D
:1010100002460B4651EC180BB047C5E900010DF52F
:10102000D363D3E90001DDF8B45604EBC505D5E977
:101030000023D047C5E90001DDF8B4560DF5D363B0
:10104000D3E90001DDF8B43604EBC303D3E9002390
:10105000B04704EBC505C5E90001DDF8B43601333E
:10106000CDF8B436DDF8B436632B8CDD0023CDF833
:10107000B4362A4E06F51664294D4FF0020B6EE089
:10108000DDF8B436D4AA02EBC303D3E90001DDF8DE
:10109000B43602EBC303D3E90023A04700287FF452
:1010A000F8ACDDF8B4360133CDF8B436DDF8B4363B
:1010B000632BE5DDF1E4DDF8AC061A4B984700221E
:1010C000194B1A4CA04786E506F65813D3E90001E0
:1010D000DDE90C8993ED009B9DEDD2ABDDF8B47694
:1010E00004EBC70797ED008BDFF840A042464B4664
:1010F000D0478046894653EC1A2B51EC190BD04748
:1011000002460B4640464946A84702460B4651EC6C
:10111000180BA847C7E90001ABE000BF880000201A
:101120002D2D4000C92F40000000E03F95304000C9
:10113000312D400000238DF824308DF825305A469B
:1011400009A9DDF8D806634B9847DDF8B4360133BA
:10115000CDF8B436DDF8B436642B00F0B7805B46CA
:1011600008AA00210DF2DC605B4FB8479DF82030E3
:101170009DF8210003EB0020584B9847CDE90A0168
:10118000DDF8B436DDE90A010CAA02EBC303C3E9BA
:101190000001DDF8B476D6E9C623009203F10043DE
:1011A0000193DDE90A23DDE90001DFF83481C0475E
:1011B00004EBC707C7E90001DDF8B4363BBB06F610
:1011C0005813D3E90001DDE9D28993ED009B9DED31
:1011D000D0ABDDF8B47604EBC70797ED008BDFF8F2
:1011E00000A142464B46D0478046894653EC1A2B15
:1011F00051EC190BD04702460B4640464946A847DA
:1012000002460B4651EC180BA847C7E90001DDF870
:10121000B436012B3FF458AF06F65811D1E90089D6
:10122000DDF8B4360CAA02EBC30353E9022391EDB7
:10123000009B9DEDD2ABDDF8B47604EBC70797EDCC
:10124000008BDFF89CA040464946D047804689463F
:1012500053EC1A2B51EC190BD04702460B46404673
:101260004946A84702460B4651EC180BA847C7E968
:1012700000010DF5D363D3E90001DDF8B47604EB8A
:10128000C707D7E90023DFF85C80C047C7E9000142
:10129000DDF8B4760DF5D363D3E90001DDF8B4369B
:1012A00004EBC303D3E90023A84704EBC707C7E94E
:1012B0000001DDF8B43613F0010F7FF43BAF0F23CC
:1012C0008DF82430FF238DF8253038E70023CDF842
:1012D000B43644E7C904400029034000C92F400048
:1012E00095304000312D400082B0024B9B6A019343
:1012F00001BEFEE700ED00E030B5224A21F00043D8
:10130000934287B01BDD204A934205DD02460B461F
:1013100001F00CFD07B030BD02AA00F0E1FA00F0C8
:101320000303012B1AD0022B0FD01BB30124DDE9DC
:101330000423DDE90201009401F01EFBEAE700222C
:10134000002300F0ADFD07B030BDDDE90423DDE989
:10135000020100F0A5FD01F10041DBE7DDE90445F4
:101360000093DDE9020122462B4601F005FB01F165
:101370000041CFE7DDE90423DDE9020100F090FD43
:10138000C8E700BFFB21E93FFFFFEF7F2DE9F043F6
:10139000DFF89C808BB004460D4600F04DF898F9BC
:1013A0000030013306460F462BD022462B462046FE
:1013B000294602F009F9814618BB2046294601F06A
:1013C00091FB0022174B02F0F5F8D0B1164B1748ED
:1013D000CDF8209001228DE80C00CDE90445CDE93F
:1013E000024501F013FC98F90030022BCDE906010B
:1013F0000CD0684601F008FC40B1089B6BB9DDE9F0
:101400000667304639460BB0BDE8F08302F01AF9A2
:1014100021230360089B002BF1D002F013F9089BF5
:101420000360ECE70000F03F3C3740000837400025
:1014300000000020000000002DE9F84FC44E21F00C
:101440000043B3420C4605460DDD03F1404303F56E
:101450008013034340F0B980002940F3408100200D
:101460000021BDE8F88FBB4EB34240F3A6800029AF
:10147000C0F2788102460B460020B74901F056FCC5
:101480000022B64B01F006FE04460D4600F04AFC71
:1014900095A3D3E90023894680462946204601F0DA
:1014A000F9FD93A3D3E9002301F042FC22462B4629
:1014B00001F0F0FD90A3D3E9002301F037FC2246B0
:1014C0002B4601F0E7FD8EA3D3E9002301F030FCA9
:1014D00022462B4601F0DEFD8BA3D3E9002301F069
:1014E00025FC22462B4601F0D5FD89A3D3E9002334
:1014F00001F01EFC22462B4601F0CCFD86A3D3E969
:10150000002382468B462046294601F0C3FD84A372
:10151000D3E9002301F00AFC22462B4601F0BAFD74
:1015200081A3D3E9002301F003FC22462B4601F0FE
:10153000B1FD7FA3D3E9002301F0F8FB22462B463F
:1015400001F0A8FD0022844B01F0F2FB02460B469D
:101550005046594601F0C8FE42464B4601F09AFDFE
:10156000002682468B4632464B463046494601F0BD
:1015700091FD02460B462046294601F0D7FB324634
:1015800004460D464B464046494601F0D1FB024613
:101590000B462046294601F0A7FE02460B46504660
:1015A000594601F0C5FB32464B4601F0C1FB0246ED
:1015B0000B4601F0BDFBBDE8F88F694A93420EDC93
:1015C0005DA1D1E90001BDE8F88F02460B4601F0AC
:1015D000ADFB02460B4601F087FEBDE8F88F0246E0
:1015E0000B4601F057FD40A3D3E9002306460F4602
:1015F00001F050FD3EA3D3E9002301F099FB3246F0
:101600003B4601F047FD3CA3D3E9002301F08EFBEC
:1016100032463B4601F03EFD39A3D3E9002301F0F9
:1016200087FB32463B4601F035FD37A3D3E9002363
:1016300001F07CFB32463B4601F02CFD34A3D3E99C
:10164000002301F075FB32463B4601F023FD32A337
:10165000D3E90023804689463046394601F01AFD19
:101660002FA3D3E9002301F061FB32463B4601F092
:1016700011FD2DA3D3E9002301F05AFB32463B466E
:1016800001F008FD2AA3D3E9002301F04FFB324605
:101690003B4601F0FFFC00222F4B01F049FB0246C4
:1016A0000B464046494601F01FFE2A46234601F0FC
:1016B000F1FC02460B4622A1D1E9000101F036FB04
:1016C00002460B462846214601F030FB02460B46F7
:1016D00019A1D1E9000101F029FBBDE8F88F1AA199
:1016E000D1E90001BDE8F88F09F7FD0DE13D023FAA
:1016F00088B20175E0EF493F3B8F68B52882A43F6F
:101700005544880E55C1C93F7D6FEB0312D6D43FB7
:10171000555555555555C53F82922EB1C5B8B33F65
:1017200059018D1B6C06E63FC88A599CE52A00408A
:101730004B2D8A1C273A0340182D4454FB21F93FB6
:10174000075C143326A6913C182D4454FB21094014
:10175000FFFFEF3FFFFFDF3F0000F03F0000E03FF3
:101760000000603C00225C4B01F0E2FA00225B4B7F
:1017700001F090FC40A3D3E9002304460D4601F09C
:1017800089FC3FA3D3E9002301F0D2FA22462B467D
:1017900001F080FC3CA3D3E9002301F0C7FA224604
:1017A0002B4601F077FC3AA3D3E9002301F0C0FAFD
:1017B00022462B4601F06EFC37A3D3E9002301F04B
:1017C000B5FA22462B4601F065FC35A3D3E9002388
:1017D00001F0AEFA22462B4601F05CFC80468946B9
:1017E0002046294600F09EFA2FA3D3E9002306469F
:1017F0000F462046294601F04DFC2DA3D3E90023D6
:1018000001F094FA22462B4601F044FC2AA3D3E9C6
:10181000002301F08DFA22462B4601F03BFC28A361
:10182000D3E9002301F082FA22462B4601F032FC74
:101830000022294B01F07CFA02460B4640464946FD
:1018400001F052FD32463B4601F024FC1EA3D3E9D1
:10185000002301F06BFA32463B4601F069FA02467A
:101860000B4601F065FA02460B4619A1D1E90001C9
:1018700001F05CFABDE8F88F09F7FD0DE13D023F8C
:1018800088B20175E0EF493F3B8F68B52882A43FDD
:101890005544880E55C1C93F7D6FEB0312D6D43F26
:1018A000555555555555C53F82922EB1C5B8B33FD4
:1018B00059018D1B6C06E63FC88A599CE52A0040F9
:1018C0004B2D8A1C273A0340075C143326A6913C13
:1018D000182D4454FB2109400000F03F0000E03F78
:1018E0002DE9F04F9A4E21F00047B74291B040F3F6
:1018F0008E809246974A97420C4626DC00298AA39E
:10190000D3E9002340F3B48101F010FA924B9F42D7
:1019100004460D4600F0908085A3D3E9002301F032
:1019200005FA02460B46CAE900232046294601F083
:10193000FDF97FA3D3E9002301F0F8F90125CAE9F5
:101940000201284611B0BDE8F08F844A974240F367
:101950009080834A974265DC3D15A5F21645A7EBBA
:10196000055319461F46064601F044FE01F02CFBC4
:101970008046894602460B4630463946CDE90A89FB
:1019800001F0D4F90022774B01F084FB89468046B0
:1019900001F030FE01F018FB02460B4606460F46EA
:1019A00040464946CDE90C6701F0C0F900226D4B75
:1019B00001F070FB00220023CDE90E0101F0D2FD01
:1019C000002800F07381002330463946002201F0E0
:1019D000C9FD002814BF01230223634A019202219A
:1019E0002A4600910AA8514600F07EFB002C0546CD
:1019F00014DADAF80420DAF80C3002F1004203F1CC
:101A000000434542CAF80420CAF80C3006E0C2E997
:101A1000000100250024C2E902450025284611B036
:101A2000BDE8F08F02460B4601F080F90025CAE9B7
:101A30000201CAE90001F1E73FA3D3E9002301F065
:101A400075F93FA3D3E900230D46044601F06EF972
:101A500002460B46CAE900232946204601F066F9F2
:101A600037A3D3E9002301F061F90125CAE9020196
:101A7000D4E701F037F834A3D3E900238046894640
:101A800001F008FB0022394B01F052F901F0B2FDE0
:101A9000054601F099FA24A3D3E90023CDE9040116
:101AA00001F0F8FA02460B464046494601F03EF97D
:101AB0001FA3D3E9002380468946DDE9040101F034
:101AC000E9FA1F2DCDE9020154DC294B6A1E53F8B7
:101AD00022309F424ED002460B464046494601F016
:101AE00025F902460B46CAE9002383460E465A46AC
:101AF00033464046494601F019F9DDE9022301F079
:101B000015F9002C02460B46CAE9022386DA5B4629
:101B100006F1004601F100418AE84800CAF80C10BD
:101B2000CAF808006D4279E700004054FB21F93FF4
:101B30003163621A61B4D03D0000601A61B4D03DD7
:101B40007370032E8A19A33B83C8C96D305FE43FCD
:101B5000FB21E93F7BD90240FB21F93FFB213941C1
:101B6000FFFFEF7F00007041C43740000000E03FFE
:101B700044374000DDE902234046494601F0D6F8EB
:101B80003A15C1F30A53D31A102B83460E46099215
:101B9000CAE90001ABDD58A3D3E90023DDE9040164
:101BA00001F078FA06460F4602460B464046494683
:101BB00001F0BCF8CDE9060102460B464046494615
:101BC00001F0B4F832463B4601F0B0F84CA3D3E93B
:101BD000002306460F46DDE9040101F05BFA3246B8
:101BE0003B4601F0A3F8DDE90689CDE90201024692
:101BF0000B464046494601F099F80B46C1F30A5797
:101C00000E460999CF1B0246312F8346CAE90023AD
:101C10006CDD3DA3D3E90023DDE9040101F03AFACC
:101C200006460F4602460B4640464946CDE9068920
:101C300001F07CF802460B4680468946DDE9060144
:101C400001F074F832463B4601F070F830A3D3E956
:101C5000002306460F46DDE9040101F01BFA324677
:101C60003B4601F063F802460B46CDE9022334E718
:101C700001F05EF82A4B9F4204460D4618D026A379
:101C8000D3E9002301F054F802460B46CAE90023C9
:101C90002946204601F04AF81FA3D3E9002301F0AA
:101CA00047F84FF0FF35CAE90201B7E6032394E68F
:101CB00011A3D3E9002301F03BF811A3D3E90023DA
:101CC0000D46044601F034F802460B46CAE90023EB
:101CD0002946204601F02AF809A3D3E9002301F0A0
:101CE00027F84FF0FF35CAE9020197E6DDE90689DA
:101CF000FDE600BFAFF300800000601A61B4D03D84
:101D00007370032E8A19A33B0000002E8A19A33B8F
:101D1000C14920259A837B393163621A61B4D03D71
:101D2000FB21F93F2DE9F8435B4F8F4305460C46F5
:101D300000F0928000290B4602466FDD0F157BD024
:101D4000A7F2FF37C3F31303F80743F480135CD4FF
:101D500003EBD27100260B447F105200B6461620CA
:101D60004FF400110EEB01049C424FEAD2754FEA8A
:101D7000420203DC1B1B04EB010E0E44013805EB91
:101D800043034FEA5101EDD1844620244FF0004136
:101D900009E020D003EBD275013C4FEA51012B44FE
:101DA0004FEA420220D0734501EB0C05F1DD002D16
:101DB00005EB010C09DBF0469542A3EB0E0300D9BD
:101DC000013B521B0844C646E4E7BCF1000FF2DBBE
:101DD0000EF10108F0E79542DCD8002D05EB010C6F
:101DE00044DB98460023ECE7134313D140087310FB
:101DF00003F17F5303F50013F20703EB075948BFC4
:101E000040F000404946BDE8F8835B0003EBD27325
:101E100052009DE7411C2DD00130E7E7064621F036
:101E200000473E43EFD069BB0F46D30A153F52052A
:101E3000002BFAD0DE0220D4002400E004465B0030
:101E4000DD0204F10100F9D5C0F1200122FA01F10F
:101E50000B433F1B824073E702460B4601F01AF921
:101E60002A46234600F064FFBDE8F883BCF1000F6A
:101E7000AEDAB6E701362046B9E7002020214FF060
:101E8000FF34E3E702460B4600F050FF02460B46E4
:101E900001F02AFAB7E700BF0000F07F0000000061
:101EA0002DE9F04F21F00046B6F1795F85B00C4680
:101EB00092469B4605466BDA01F09CFB002800F039
:101EC000E8802A4623462846214601F0E3F874A319
:101ED000D3E900238046894601F0DCF872A3D3E9F8
:101EE000002300F025FF42464B4601F0D3F870A3D3
:101EF000D3E9002300F01AFF42464B4601F0CAF82E
:101F00006DA3D3E9002300F013FF42464B4601F0D6
:101F1000C1F86BA3D3E9002300F008FF42464B460B
:101F200001F0B8F868A3D3E9002300F001FF4246AE
:101F30004B4601F0AFF8CDE900010022644B40466A
:101F4000494601F0A7F8DDE9002306460F46404662
:101F5000494601F09FF85246804689465B4628462E
:101F6000214601F097F802460B464046494600F0EC
:101F7000DDFE02460B463046394600F0D7FE0246EB
:101F80000B460020534900F0D1FE05B0BDE8F08FAC
:101F900002460B4601F07EF841A3D3E900238046B8
:101FA000894601F077F840A3D3E9002300F0C0FE92
:101FB00042464B4601F06EF83DA3D3E9002300F002
:101FC000B5FE42464B4601F065F83BA3D3E900233A
:101FD00000F0AEFE42464B4601F05CF838A3D3E970
:101FE000002300F0A3FE42464B4601F053F836A30F
:101FF000D3E9002300F09CFE4B46424601F04AF82C
:10200000354B9E42CDE9000197DD344B9E424FF0A7
:10201000000238DCA6F5001300202E4916461F46A4
:1020200000F084FECDE902010022294B40464946DA
:1020300001F030F832463B4600F078FEDDE900233F
:1020400006460F464046494601F024F8524680466F
:1020500089465B462846214601F01CF802460B469D
:102060004046494600F062FE02460B46304639467D
:1020700000F05CFE02460B46DDE9020100F056FE70
:1020800005B0BDE8F08F164B164FCDE902230026B0
:10209000CAE71049002005B0BDE8F08FAFF300801B
:1020A000D43888BEE9FAA8BDC4B1B4BD9EEE213EC5
:1020B000AD529C804F7E923E9015CB19A001FA3E06
:1020C0007751C1166CC1563F4C5555555555A53FD6
:1020D0000000E03F0000F03F3233D33F0000E93F13
:1020E0000000E73F0000D23F2DE9F04FADF5197D2C
:1020F0009C4CA29E9C4D54F8264005942646D41E26
:1021000085FB0475E417C4EBA50424EAE4741D46BA
:102110000893631CA3EB8303013D02EBC303049309
:102120002B4609940295651BF418039006911AD466
:102130002C4401340DF1780800260027DDF88C923C
:1021400008E059F8250000F03FFF0135A542E8E915
:10215000020108D0002DF4DA013530463946A54297
:10216000E8E90201F6D1059B002B2EDB089B4FEA24
:10217000C309039BA9F10808984420AB9944059B27
:1021800070AA02EBC30B0DF5DC7A029B002BC0F2A8
:102190000F83039B4D46A3F108040026002775E931
:1021A0000223F4E9020100F075FF02460B463046B7
:1021B000394600F0BDFD444506460F46EFD1EAE939
:1021C0000267DA4509F10809DFD10598089A0090FD
:1021D00000F18043013B9B000CAC191F234402F12A
:1021E00000520B93039B013A21440A9103EBC20B6B
:1021F000009A98A901EBC203002A53E92845134627
:102200002BDD01EBC308A8F1A8080DF12C090DF591
:10221000DC7A0022554B2046294600F03BFF01F0B6
:10222000E9F900F0D1FE0022514B06460F4600F0BE
:1022300031FF02460B462046294600F077FD01F0AB
:10224000D9F978E8022349F8040F3946304600F0FE
:102250006FFDD04504460D46DBD1DDF810902046D9
:1022600029464A4600F0D8FC00224FF07F5304462E
:102270000D4600F00FFF00F03BFC00223D4B00F04C
:1022800009FF02460B462046294600F04FFD0D4649
:10229000044601F0AFF9804600F096FE0B46024678
:1022A0002946204600F042FD4B46002B06460F46CD
:1022B00040F3F780009A0CA9013AC9F1180351F8CC
:1022C000225045FA03F101FA03F30CA8EB1A40F887
:1022D0002230C9F11705884443FA05F5002D63DD66
:1022E000009B002B08F1010840F381820C9C002C1C
:1022F00000F01883012000230CAAC4F1807442F876
:102300002340009A824219DD0CAA0CAC52F820102E
:102310006FF07F42511A44F820100099023399421D
:102320000CDD1046009A0CA901EB830301EB82013E
:102330001A68821A43F8042B8B42F9D1049B002BB4
:102340001ADD049B012B4FF0010440F05882009BE2
:102350005A1E0CAB0CA953F82230C3F3160341F8F4
:10236000223058E210394000ABAAAA2A0000703E81
:102370000000704100002040022D15D132463B463E
:102380000020974900F0D2FC06460F46049A944973
:10239000002000F041FC02460B463046394600F072
:1023A000C5FC022506460F4600220023304639466A
:1023B00001F0D8F8002800F05282009A059B501EC8
:1023C00083420FDC02F18043013B0CAA0B9C02EB21
:1023D0008303002253F80419A34242EA0102F9D10F
:1023E000002A6FD1059B0CAA013B52F82330002B29
:1023F00040F033820A9A012352F80419013300296C
:10240000FAD0009AD31802F1010A9A4507933DDCED
:10241000009B0899099A0B4407990AEB0208994610
:1024200020AB08F1804803EBC9098B18A39A08F187
:10243000FF3802EB880870AA02EBCA0AA39A02EBE3
:102440008303009358F8040F00F0BEFD029B002B9D
:10245000E9E802011DDB039B4D46A3F108040026B9
:10246000002775E90223F4E9020100F013FE024699
:102470000B463046394600F05BFC5C4506460F468D
:10248000EFD1009B9845EAE80267DBD1079B0093F8
:10249000AEE6009B002600279845EAE80267D1D106
:1024A000F4E706D1009B0CAA013B52F82350ED152E
:1024B00014E700224B4B01F073F8002840F08281B2
:1024C000054671E70CA9029551F820300499CDF822
:1024D0001C8018390246009004916BB900F18043CA
:1024E000013B0CA800EB830353F80409013A1839A7
:1024F0000028F9D000920491049A3949002000F094
:102500008BFB009B002B04460D46C0F20382DA00D1
:1025100070A901EB020B04920CAA02EB8306DFF810
:10252000C8900BF1080704364FF0000856F8040D68
:1025300000F04AFD22462B4600F0ACFD4B4667E911
:10254000020142462046294600F0A4FD0CAB9E4203
:1025500004460D46EAD10DF5907ACDF80CA0DDF8D1
:1025600014A04FF00009BAF1000FC0F23D81DFF86E
:102570007C805D4618A1D1E90001002600270024D7
:1025800003E04C4510DCF8E80201F5E8022300F016
:1025900081FD02460B463046394600F0C9FB013446
:1025A000A24506460F46ECDA039B03EBC903ABF1E9
:1025B000080BC3E900676EAB5B4509F10109D2D195
:1025C000A29BDDF80CA0032B00F28B80DFE813F058
:1025D000D10090009000100000000040FB21F93F66
:1025E0000000F03F0000E03F0000703ED83840009F
:1025F000009B002B40F3A481049B0AEB0308D8E95D
:102600000067D34658E9029A32463B46484651464F
:1026100000F08EFB04460D4602460B4648465146E6
:1026200000F084FB32463B4600F082FBC8E9000123
:1026300068E90245C34526462F46E3D1009B012B9E
:10264000DA4640F37D81049B5B44D3E900679846FA
:1026500099460DF5947B59E90234324618462146D5
:102660003B46CDE9000100F063FB04460D460246FF
:102670000B46DDE9000100F059FB32463B4600F015
:1026800057FBC9E9000169E90245CB4526462F46BB
:10269000E1D1002308F108081D464CAC1846294634
:1026A00078E9022300F044FB444503460D46F5D18A
:1026B000029A002A00F02081DAF80440DAF80C20AF
:1026C000069FDAF80010DAF808003B6105F10045D2
:1026D00004F1004402F100427D617C60FA603960DF
:1026E000B860079B03F007000DF5197DBDE8F08F7A
:1026F000049C00260834544433463046194674E995
:10270000022300F015FB544506460B46F5D1029A0C
:1027100030461946002A00F0DA80069803F100449A
:10272000324644600660DAE9000100F0FFFA0B4629
:102730000099002902460EDD012410461946FAE9E7
:10274000022300F0F5FA0B4600990134A14202463B
:10275000F3DA029909B103F100431946069B1046CA
:10276000C3E90201079B03F007000DF5197DBDE8E1
:10277000F08F049C00220834544413461046194636
:1027800074E9022300F0D4FAA24502460B46F5D1C3
:10279000029909B103F100431946069B1046C3E9AB
:1027A0000001079B03F007000DF5197DBDE8F08FD0
:1027B00000260027EAE90267DA4509F108097FF4F3
:1027C000E4AC02E5009B002B08F10108C8BF02251C
:1027D0003FF78CAD32463B460020634900F0A6FA35
:1027E000022506460F46DFE500260027DCE6049BAF
:1027F000002B26DD0024049B012B3FF4A8AD022B07
:1028000009D1009B5A1E0CAB0CA953F82230C3F31C
:10281000150341F82230022D7FF4C6AD32463B4607
:102820000020514900F082FA06460F46002C3FF482
:10283000BBADABE500990133994278D1049B002BE5
:10284000D9DC022D7FF4B0AD32463B46002046492C
:1028500000F06CFA06460F46A6E50123D1E539469D
:10286000049F02957A423046CDF81C8000F0D4F9DE
:1028700000223E4B04460D4600F092FE002862D036
:1028800000223B4B2046294600F004FC00F0B2FE3B
:10289000064600F099FB0022344B00F0FBFB024699
:1028A0000B462046294600F041FA00F0A3FE0099AD
:1028B0000B4601331A4600933B46183304930B46EC
:1028C0000CA941F82300134641F8236014E6069B47
:1028D0003246C3E900010B46DAE9000100F026FAAE
:1028E0000B460099002902463FF726AF1946069B82
:1028F0001046C3E9020135E718462946DAE9002304
:10290000DAE90245069FC7E90401C7E90023C7E9E0
:102910000245E6E6A29B032B3FF6E3AEDFE803F0B9
:10292000211C1C0E009B012B88DD0CAA012352F8F0
:10293000044F002C3FF47EAF581CDDE40DF5907A77
:1029400000231D46B4E62946204600F053FE009AB7
:102950000CA941F82200CFE5002633460DF5907A08
:10296000D5E60022134613E70000F03F0000704157
:102970000000703E000000002DE9F04F21F00046FD
:10298000B6F1795F85B00C4690469946054604DA63
:1029900000F030FE002800F085802A4623462846B5
:1029A000214600F077FB06460F4602460B462846B6
:1029B000214600F06FFB3EA3D3E9002382468B46FD
:1029C0003046394600F066FB3BA3D3E9002300F014
:1029D000ADF932463B4600F05DFB39A3D3E9002355
:1029E00000F0A6F932463B4600F054FB36A3D3E98B
:1029F000002300F09BF932463B4600F04BFB34A32A
:102A0000D3E9002300F094F90E9BCDE900019BB3BC
:102A10000022334B4046494600F03CFBDDE90023F1
:102A2000CDE902015046594600F034FB02460B4600
:102A3000DDE9020100F07AF932463B4600F02AFB5C
:102A400042464B4600F072F923A3D3E90023064621
:102A50000F465046594600F01DFB02460B463046D5
:102A6000394600F065F902460B462846214600F03B
:102A70005DF905B0BDE8F08F02460B463046394699
:102A800000F008FB14A3D3E9002300F04FF95246ED
:102A90005B4600F0FFFA2A46234600F049F905B0EC
:102AA000BDE8F08F2846214605B0BDE8F08F00BF95
:102AB0007CD5CF5A3AD9E53DEB9C2B8AE6E55A3EC8
:102AC0007DFEB157E31DC73ED561C119A0012A3F64
:102AD000A6F810111111813F495555555555C53F5F
:102AE0000000E03F21F00041704700BF00000000FF
:102AF000C1F30A522DE9F843A2F2FF36132E0B461A
:102B00000D460446884607461DDC002E40DB3C4A45
:102B100042FA06F901EA09020243864618D036A3B2
:102B2000D3E9002300F004F90022002300F042FD65
:102B300020B1002D42DB28EA090500273C46294642
:102B40002046BDE8F883332E06DDB6F5806F2FD022
:102B500019462046BDE8F883A2F213424FF0FF3930
:102B600029FA02F910EA090FF2D023A3D3E90023CE
:102B700000F0DEF80022002300F01CFD0028DDD06C
:102B8000002D21DB454627EA09073C462946D7E7C1
:102B900019A3D3E9002300F0CBF80022002300F0B2
:102BA00009FD0028CAD0002D19DB00273D46C5E7E6
:102BB00002460B4600F0BCF80446CAE74FF4801307
:102BC00043FA06F6B044B6E7142E10D00123C6F13E
:102BD000340603FA06F6371928BF9844D2E725F0E1
:102BE0000042084B224318BF1D460027A6E705F107
:102BF0000108C7E7AFF300809C7500883CE4377E8E
:102C0000FFFF0F000000F0BF0020704700200149C7
:102C1000704700BF0000F87FF8B5C1F30A560446BC
:102C20000D460B4617460EBB21F000430343864674
:102C300025D00022344B00F02DFA344A9742044646
:102C40000D460B462ADBC1F30A56363E3E4440F29F
:102C5000FE72964228DC002E12DD23F0FF4323F49F
:102C6000E00343EA065520462946F8BD40F2FF72CC
:102C70009642EBD102460B4600F05AF8F8BDF8BD7B
:102C800016F1350F1DDA4CF250339F4222462B4687
:102C900025DC19A1D1E9000100F03CF816A3D3E925
:102CA000002300F0F7F9F8BD22462B4614A1D1E924
:102CB000000100F02FF812A3D3E9002300F0EAF995
:102CC000F8BD23F0FF4323F4E003363643EA06550C
:102CD0002046294600220E4B00F0DCF9F8BD08A181
:102CE000D1E9000100F016F805A3D3E9002300F0B4
:102CF000D1F9F8BDAFF3008059F3F8C21F6EA501FA
:102D00009C7500883CE4377E00005043B03CFFFFD8
:102D10000000903C03F0004321F0004242EA03012E
:102D2000704700BF81F0004102E000BF83F0004324
:102D300030B54FEA41044FEA430594EA050F08BF56
:102D400090EA020F1FBF54EA000C55EA020C7FEA1A
:102D5000645C7FEA655C00F0E2804FEA5454D4EB97
:102D60005555B8BF6D420CDD2C4480EA020281EA61
:102D7000030382EA000083EA010180EA020281EA99
:102D80000303362D88BF30BD11F0004F4FEA0131EB
:102D90004FF4801C4CEA113102D0404261EB4101FA
:102DA00013F0004F4FEA03334CEA133302D0524280
:102DB00063EB430394EA050F00F0A780A4F101043C
:102DC000D5F1200E0DDB02FA0EFC22FA05F2801876
:102DD00041F1000103FA0EF2801843FA05F359415C
:102DE0000EE0A5F120050EF1200E012A03FA0EFCDB
:102DF00028BF4CF0020C43FA05F3C01851EBE37105
:102E000001F0004507D54FF0000EDCF1000C7EEB21
:102E100000006EEB0101B1F5801F1BD3B1F5001F5F
:102E20000CD349085FEA30004FEA3C0C04F101047E
:102E30004FEA445212F5800F80F09A80BCF1004FA7
:102E400008BF5FEA500C50F1000041EB045141EA29
:102E5000050130BD5FEA4C0C404141EB010111F42A
:102E6000801FA4F10104E9D191F0000F04BF0146D5
:102E70000020B1FA81F308BF2033A3F10B03B3F1B3
:102E800020020CDA0C3208DD02F1140CC2F10C0243
:102E900001FA0CF021FA02F10CE002F11402D8BFA1
:102EA000C2F1200C01FA02F120FA0CFCDCBF41EA6D
:102EB0000C019040E41AA2BF01EB0451294330BD3C
:102EC0006FEA04041F3C1CDA0C340EDC04F1140419
:102ED000C4F1200220FA04F001FA02F340EA0300F0
:102EE00021FA04F345EA030130BDC4F10C04C4F136
:102EF000200220FA02F001FA04F340EA0300294616
:102F000030BD21FA04F0294630BD94F0000F83F45F
:102F1000801306BF81F480110134013D4EE77FEA42
:102F2000645C18BF7FEA655C29D094EA050F08BF8E
:102F300090EA020F05D054EA000C04BF194610466F
:102F400030BD91EA030F1EBF0021002030BD5FEAB3
:102F5000545C05D14000494128BF41F0004130BDDB
:102F600014F580043CBF01F5801130BD01F000452F
:102F700045F0FE4141F470014FF0000030BD7FEAA2
:102F8000645C1ABF194610467FEA655C1CBF0B469D
:102F9000024650EA013406BF52EA033591EA030FB4
:102FA00041F4002130BD00BF90F0000F04BF0021AC
:102FB000704730B54FF4806404F132044FF00005DF
:102FC0004FF0000150E700BF90F0000F04BF002158
:102FD000704730B54FF4806404F1320410F00045BE
:102FE00048BF40424FF000013EE700BF42004FEAB9
:102FF000E2014FEA31014FEA02701FBF12F07F4336
:1030000093F07F4F81F06051704792F0000F14BF32
:1030100093F07F4F704730B54FF4607401F0004576
:1030200021F0004120E700BF50EA010208BF7047CD
:1030300030B54FF000050AE050EA010208BF7047C2
:1030400030B511F0004502D5404261EB41014FF42B
:10305000806404F132045FEA915C3FF4DCAE4FF02F
:1030600003025FEADC0C18BF03325FEADC0C18BF16
:10307000033202EBDC02C2F1200300FA03FC20FA67
:1030800002F001FA03FE40EA0E0021FA02F11444B4
:10309000C1E600BF70B54FF0FF0C4CF4E06C1CEAC9
:1030A00011541DBF1CEA135594EA0C0F95EA0C0F3E
:1030B00000F0DEF82C4481EA030621EA4C5123EAB1
:1030C0004C5350EA013518BF52EA033541F48011E0
:1030D00043F4801338D0A0FB02CE4FF00005E1FB93
:1030E00002E506F00042E0FB03E54FF00006E1FBDD
:1030F00003569CF0000F18BF4EF0010EA4F1FF0420
:10310000B6F5007F64F5407404D25FEA4E0E6D415F
:1031100046EB060642EAC62141EA55514FEAC52070
:1031200040EA5E504FEACE2EB4F1FD0C88BFBCF5EC
:10313000E06F1ED8BEF1004F08BF5FEA500E50F19D
:10314000000041EB045170BD06F0004646EA010163
:1031500040EA020081EA0301B4EB5C04C2BFD4EB95
:103160000C0541EA045170BD41F480114FF0000E8E
:10317000013C00F3AB8014F1360FDEBF002001F0FC
:10318000004170BDC4F10004203C35DA0C341BDC76
:1031900004F11404C4F1200500FA05F320FA04F048
:1031A00001FA05F240EA020001F0004221F000417C
:1031B00010EBD37021FA04F642EB06015EEA430EEF
:1031C00008BF20EAD37070BDC4F10C04C4F120051F
:1031D00000FA04F320FA05F001FA04F240EA0200D2
:1031E00001F0004110EBD37041F100015EEA430EA3
:1031F00008BF20EAD37070BDC4F1200500FA05F2C3
:103200004EEA020E20FA04F301FA05F243EA020341
:1032100021FA04F001F0004121FA04F220EA020050
:1032200000EBD3705EEA430E08BF20EAD37070BD96
:1032300094F0000F0FD101F00046400041EB010176
:1032400011F4801F08BF013CF7D041EA060195F058
:10325000000F18BF704703F00046520043EB030312
:1032600013F4801F08BF013DF7D043EA06037047FF
:1032700094EA0C0F0CEA135518BF95EA0C0F0CD00A
:1032800050EA410618BF52EA4306D1D181EA030150
:1032900001F000414FF0000070BD50EA410606BF4A
:1032A0001046194652EA430619D094EA0C0F02D18F
:1032B00050EA013613D195EA0C0F05D152EA0336D4
:1032C0001CBF104619460AD181EA030101F00041F2
:1032D00041F0FE4141F470014FF0000070BD41F03B
:1032E000FE4141F4780170BD70B54FF0FF0C4CF415
:1032F000E06C1CEA11541DBF1CEA135594EA0C0F34
:1033000095EA0C0F00F0A7F8A4EB050481EA030E80
:1033100052EA03354FEA013100F088804FEA033367
:103320004FF0805545EA131343EA12634FEA022235
:1033300045EA111545EA10654FEA00260EF00041F6
:103340009D4208BF964244F1FD0404F5407402D248
:103350005B084FEA3202B61A65EB03055B084FEAD9
:1033600032024FF480104FF4002CB6EB020E75EBD6
:10337000030E22BFB61A754640EA0C005B084FEAFE
:103380003202B6EB020E75EB030E22BFB61A75467B
:1033900040EA5C005B084FEA3202B6EB020E75EBC6
:1033A000030E22BFB61A754640EA9C005B084FEA3E
:1033B0003202B6EB020E75EB030E22BFB61A75464B
:1033C00040EADC0055EA060E18D04FEA051545EA3A
:1033D00016754FEA06164FEAC30343EA52734FEAE3
:1033E000C2025FEA1C1CC0D111F4801F0BD141EA5C
:1033F00000014FF000004FF0004CB6E711F4801FC1
:1034000004BF01430020B4F1FD0C88BFBCF5E06FA0
:103410003FF6AFAEB5EB030C04BFB6EB020C5FEAB0
:10342000500C50F1000041EB045170BD0EF0004E05
:103430004EEA113114EB5C04C2BFD4EB0C0541EA37
:10344000045170BD41F480114FF0000E013C90E634
:1034500045EA060E8DE60CEA135594EA0C0F08BFF8
:1034600095EA0C0F3FF43BAF94EA0C0F0AD150EAF7
:1034700001347FF434AF95EA0C0F7FF425AF10468A
:1034800019462CE795EA0C0F06D152EA03353FF4B2
:10349000FDAE1046194622E750EA410618BF52EA2F
:1034A00043067FF4C5AE50EA41047FF40DAF52EA03
:1034B00043057FF4EBAE12E74FF0FF3C06E000BFA0
:1034C0004FF0010C02E000BF4FF0010C4DF804CDAD
:1034D0004FEA410C7FEA6C5C4FEA430C18BF7FEA6D
:1034E0006C5C1BD001B050EA410C0CBF52EA430C9B
:1034F00091EA030F02BF90EA020F0020704710F11B
:10350000000F91EA030F58BF994208BF90422CBFA9
:10351000D8176FEAE37040F0010070474FEA410CA2
:103520007FEA6C5C02D150EA013C07D14FEA430CC0
:103530007FEA6C5CD6D152EA033CD3D05DF8040B31
:10354000704700BF8446104662468C461946634663
:1035500000E000BF01B5FFF7B7FF002848BF10F13A
:10356000000F01BD4DF808EDFFF7F4FF0CBF01207F
:1035700000205DF808FB00BF4DF808EDFFF7EAFFFB
:1035800034BF012000205DF808FB00BF4DF808EDB6
:10359000FFF7E0FF94BF012000205DF808FB00BFAB
:1035A0004DF808EDFFF7CEFF94BF012000205DF835
:1035B00008FB00BF4DF808EDFFF7C4FF34BF012042
:1035C00000205DF808FB00BF4FEA410C7FEA6C5C0D
:1035D00002D150EA013C0AD14FEA430C7FEA6C5C0D
:1035E00002D152EA033C02D14FF0000070474FF085
:1035F000010070474FEA410212F5001215D211D5B1
:103600006FF47873B3EB625212D94FEAC12343F0DF
:10361000004343EA505311F0004F23FA02F018BF61
:10362000404270474FF00000704750EA013005D12A
:1036300011F0004008BF6FF0004070474FF00000ED
:10364000704700BF014B1868704700BF040000209E
:1036500070B50D4E0D4CA41BA4100025A54209D138
:103660000B4E0C4C00F08CF9A41BA4100025A542B5
:1036700005D170BD56F8253098470135EEE756F86C
:10368000253098470135F2E78C3940008C394000ED
:103690008C3940009039400002440346934200D1E7
:1036A000704703F8011BF9E72E2E2F68616C2F730A
:1036B00072632F68616C5F6164635F73796E632E00
:1036C000630000002E2E2F68616C2F7372632F68C9
:1036D000616C5F6932635F6D5F73796E632E630047
:1036E0002E2E2F68616C2F7372632F68616C5F6977
:1036F0006F2E63002E2E2F68706C2F6164632F680D
:10370000706C5F6164632E630000000000860140FE
:10371000200000000000000000000000070700007B
:10372000401F00002E2E2F68706C2F7477692F6851
:10373000706C5F7477692E630000000061636F73C3
:1037400000000000FB21F93FFB2109407CD9124019
:10375000FB2119407A6A1F407CD92240BBFD2540DD
:10376000FB2129403A462C407A6A2F405C47314081
:103770007CD932409C6B3440BBFD3540DB8F3740F9
:10378000FB2139401BB43A403A463C405AD83D40B0
:103790007A6A3F404C7E40405C4741406C1042405A
:1037A0007CD942408CA243409C6B4440AC344540A1
:1037B000BBFD4540CBC64640DB8F4740EB584840F9
:1037C000FB21494083F9A200444E6E00FC291500FC
:1037D000D1572700DD34F50062DBC0003C9995002D
:1037E000419043006351FE00BBDEAB00B761C500F2
:1037F0003A6E2400D24D42004906E00009EA2E004C
:103800001C92D100EB1DFE0029B11C00E83EA70070
:10381000F535820044BB2E009CE98400B42670007C
:10382000417E5F00D6913900538339009CF4390002
:103830008B5F840028F9BD00F81F3B00DEFF970076
:103840000F980500112FEF000A5A8B006D1F6D00B5
:10385000CF7E360009CB2700464FB7009E663F005B
:103860002DEA5F00BA277500E5EBC7003D7BF1004C
:10387000F739070092528A00FB6BEA001FB15F0024
:10388000085D8D00300356007BFC4600F0AB6B00FA
:1038900020BCCF0036F49A00E3A91D005E619100C0
:1038A000081BE60085996500A0145F008D40680044
:1038B00080D8FF0027734D0006063100CA56150058
:1038C000C9A873007BE260006B8CC00000000000A0
:1038D00000000040FB21F93F000000002D44743E31
:1038E000000000809846F83C0000006051CC783B16
:1038F00000000080831BF0390000004020257A384A
:10390000000000802282E336000000001DF36935CC
:103910000200000003000000040000000600000098
:103920000000000000000000000000000000000097
:103930000000000000000000000000000000000087
:103940000000000000000000000000000000000077
:103950000000000000000000000000000000000067
:103960000000000000000000000000000000000057
:103970000000000000000000000000000000000047
:10398000F8B500BFF8BC08BC9E4670472D0140004A
:10399000F8B500BFF8BC08BC9E467047090140005E
:1039A0000100000008000020000000004039400035
:1039B0006039400020394000000000000000000095
:1039C00000000000000000000000000000000000F7
:1039D00000000000000000000000000000000000E7
:1039E00000000000000000000000000000000000D7
:1039F00000000000000000000000000000000000C7
:083A00000000000000000000BE
:0400000500400000B7
:00000001FF
